:020000040800F2
:1000000000500020C51C0008FD140008031500085E
:10001000091500080F15000815150008000000005C
:100020000000000000000000000000001B15000898
:100030002715000800000000331500083F150008D0
:100040000D1D00080D1D00080D1D00080D1D0008E8
:100050000D1D00080D1D00080D1D00080D1D0008D8
:100060000D1D00080D1D00080D1D00080D1D0008C8
:100070000D1D00080D1D00080D1D00080D1D0008B8
:100080000D1D00080D1D00080D1D00080D1D0008A8
:100090000D1D00080D1D00080D1D00080D1D000898
:1000A0000D1D00080D1D00080D1D00080D1D000888
:1000B0000D1D00080D1D00080D1D00080D1D000878
:1000C0000D1D00080D1D00080D1D00080D1D000868
:1000D0000D1D00080D1D00080D1D00080D1D000858
:1000E0000D1D00080D1D00080D1D0008000000007A
:1000F0000000000000000000000000000000000000
:0C01000000000000000000005FF808F1A3
:1001100010B5054C237833B9044B13B10448AFF341
:1001200000800123237010BDD801002000000000D2
:100130003864000808B5034B1BB103490348AFF30B
:10014000008008BD00000000DC01002038640008C9
:10015000034613F8012B002AFBD1181A0138704707
:1001600081F0004102E000BF83F0004330B54FEA68
:1001700041044FEA430594EA050F08BF90EA020FD5
:100180001FBF54EA000C55EA020C7FEA645C7FEA68
:10019000655C00F0E2804FEA5454D4EB5555B8BF8B
:1001A0006D420CDD2C4480EA020281EA030382EAFC
:1001B000000083EA010180EA020281EA0303362D8E
:1001C00088BF30BD11F0004F4FEA01314FF4801C61
:1001D0004CEA113102D0404261EB410113F0004F73
:1001E0004FEA03334CEA133302D0524263EB43032A
:1001F00094EA050F00F0A780A4F10104D5F1200EC8
:100200000DDB02FA0EFC22FA05F2801841F1000122
:1002100003FA0EF2801843FA05F359410EE0A5F1F6
:1002200020050EF1200E012A03FA0EFC28BF4CF027
:10023000020C43FA05F3C01851EBE37101F00045DD
:1002400007D54FF0000EDCF1000C7EEB00006EEBEA
:100250000101B1F5801F1BD3B1F5001F0CD3490874
:100260005FEA30004FEA3C0C04F101044FEA4452CB
:1002700012F5800F80F09A80BCF1004F08BF5FEA52
:10028000500C50F1000041EB045141EA050130BD32
:100290005FEA4C0C404141EB0101013C28BFB1F544
:1002A000801FE9D291F0000F04BF01460020B1FA8F
:1002B00081F308BF2033A3F10B03B3F120020CDA62
:1002C0000C3208DD02F1140CC2F10C0201FA0CF040
:1002D00021FA02F10CE002F11402D8BFC2F1200CA5
:1002E00001FA02F120FA0CFCDCBF41EA0C0190405B
:1002F000E41AA2BF01EB0451294330BD6FEA0404A4
:100300001F3C1CDA0C340EDC04F11404C4F120028E
:1003100020FA04F001FA02F340EA030021FA04F3A0
:1003200045EA030130BDC4F10C04C4F1200220FAF7
:1003300002F001FA04F340EA0300294630BD21FA35
:1003400004F0294630BD94F0000F83F4801306BFFB
:1003500081F480110134013D4EE77FEA645C18BFEF
:100360007FEA655C29D094EA050F08BF90EA020F86
:1003700005D054EA000C04BF1946104630BD91EA7E
:10038000030F1EBF0021002030BD5FEA545C05D181
:100390004000494128BF41F0004130BD14F58004C0
:1003A0003CBF01F5801130BD01F0004545F0FE4134
:1003B00041F470014FF0000030BD7FEA645C1ABF69
:1003C000194610467FEA655C1CBF0B46024650EAA0
:1003D000013406BF52EA033591EA030F41F40021CC
:1003E00030BD00BF90F0000F04BF0021704730B552
:1003F0004FF4806404F132044FF000054FF0000127
:1004000050E700BF90F0000F04BF0021704730B5E7
:100410004FF4806404F1320410F0004548BF4042BC
:100420004FF000013EE700BF42004FEAE2014FEA11
:1004300031014FEA02701FBF12F07F4393F07F4FEC
:1004400081F06051704732F07F4208BF704793F0EF
:100450007F4F04BF41F40021704730B54FF4607402
:1004600001F0004521F000411CE700BF50EA010205
:1004700008BF704730B54FF000050AE050EA0102AE
:1004800008BF704730B511F0004502D5404261EB1E
:1004900041014FF4806404F132045FEA915C3FF45F
:1004A000D8AE4FF003025FEADC0C18BF03325FEAFC
:1004B000DC0C18BF033202EBDC02C2F1200300FAAD
:1004C00003FC20FA02F001FA03FE40EA0E0021FAD2
:1004D00002F11444BDE600BF70B54FF0FF0C4CF4C0
:1004E000E06C1CEA11541DBF1CEA135594EA0C0F72
:1004F00095EA0C0F00F0DEF82C4481EA030621EAAD
:100500004C5123EA4C5350EA013518BF52EA0335E7
:1005100041F4801143F4801338D0A0FB02CE4FF099
:100520000005E1FB02E506F00042E0FB03E54FF0C9
:100530000006E1FB03569CF0000F18BF4EF0010EC1
:10054000A4F1FF04B6F5007F64F5407404D25FEABD
:100550004E0E6D4146EB060642EAC62141EA555170
:100560004FEAC52040EA5E504FEACE2EB4F1FD0CB2
:1005700088BFBCF5E06F1ED8BEF1004F08BF5FEA30
:10058000500E50F1000041EB045170BD06F00046E2
:1005900046EA010140EA020081EA0301B4EB5C048F
:1005A000C2BFD4EB0C0541EA045170BD41F4801187
:1005B0004FF0000E013C00F3AB8014F1360FDEBFAC
:1005C000002001F0004170BDC4F10004203C35DA88
:1005D0000C341BDC04F11404C4F1200500FA05F30B
:1005E00020FA04F001FA05F240EA020001F00042AC
:1005F00021F0004110EBD37021FA04F642EB060122
:100600005EEA430E08BF20EAD37070BDC4F10C044B
:10061000C4F1200500FA04F320FA05F001FA04F20F
:1006200040EA020001F0004110EBD37041F10001FB
:100630005EEA430E08BF20EAD37070BDC4F1200506
:1006400000FA05F24EEA020E20FA04F301FA05F26E
:1006500043EA020321FA04F001F0004121FA04F216
:1006600020EA020000EBD3705EEA430E08BF20EAE6
:10067000D37070BD94F0000F0FD101F00046400020
:1006800041EB010111F4801F08BF013CF7D041EAA2
:10069000060195F0000F18BF704703F000465200A6
:1006A00043EB030313F4801F08BF013DF7D043EA77
:1006B0000603704794EA0C0F0CEA135518BF95EA2D
:1006C0000C0F0CD050EA410618BF52EA4306D1D1B4
:1006D00081EA030101F000414FF0000070BD50EAD3
:1006E000410606BF1046194652EA430619D094EA5D
:1006F0000C0F02D150EA013613D195EA0C0F05D147
:1007000052EA03361CBF104619460AD181EA03019A
:1007100001F0004141F0FE4141F470014FF0000052
:1007200070BD41F0FE4141F4780170BD70B54FF0ED
:10073000FF0C4CF4E06C1CEA11541DBF1CEA13556D
:1007400094EA0C0F95EA0C0F00F0A7F8A4EB05044F
:1007500081EA030E52EA03354FEA013100F0888046
:100760004FEA03334FF0805545EA131343EA12630F
:100770004FEA022245EA111545EA10654FEA0026C4
:100780000EF000419D4208BF964244F1FD0404F57D
:10079000407402D25B084FEA3202B61A65EB0305D9
:1007A0005B084FEA32024FF480104FF4002CB6EB96
:1007B000020E75EB030E22BFB61A754640EA0C0016
:1007C0005B084FEA3202B6EB020E75EB030E22BF56
:1007D000B61A754640EA5C005B084FEA3202B6EB97
:1007E000020E75EB030E22BFB61A754640EA9C0056
:1007F0005B084FEA3202B6EB020E75EB030E22BF26
:10080000B61A754640EADC0055EA060E18D04FEAE3
:10081000051545EA16754FEA06164FEAC30343EA83
:1008200052734FEAC2025FEA1C1CC0D111F4801F50
:100830000BD141EA00014FF000004FF0004CB6E749
:1008400011F4801F04BF01430020B4F1FD0C88BFE8
:10085000BCF5E06F3FF6AFAEB5EB030C04BFB6EBF3
:10086000020C5FEA500C50F1000041EB045170BDE6
:100870000EF0004E4EEA113114EB5C04C2BFD4EB13
:100880000C0541EA045170BD41F480114FF0000E97
:10089000013C90E645EA060E8DE60CEA135594EA13
:1008A0000C0F08BF95EA0C0F3FF43BAF94EA0C0F16
:1008B0000AD150EA01347FF434AF95EA0C0F7FF48B
:1008C00025AF104619462CE795EA0C0F06D152EADF
:1008D00003353FF4FDAE1046194622E750EA4106C3
:1008E00018BF52EA43067FF4C5AE50EA41047FF4D4
:1008F0000DAF52EA43057FF4EBAE12E74FF0FF3C39
:1009000006E000BF4FF0010C02E000BF4FF0010C09
:100910004DF804CD4FEA410C7FEA6C5C4FEA430C82
:1009200018BF7FEA6C5C1BD001B050EA410C0CBFD1
:1009300052EA430C91EA030F02BF90EA020F002033
:10094000704710F1000F91EA030F58BF994208BF9A
:1009500090422CBFD8176FEAE37040F00100704757
:100960004FEA410C7FEA6C5C02D150EA013C07D1AE
:100970004FEA430C7FEA6C5CD6D152EA033CD3D0F9
:100980005DF8040B704700BF8446104662468C46F3
:100990001946634600E000BF01B5FFF7B7FF002826
:1009A00048BF10F1000F01BD4DF808EDFFF7F4FF4F
:1009B0000CBF012000205DF808FB00BF4DF808EDDA
:1009C000FFF7EAFF34BF012000205DF808FB00BFFD
:1009D0004DF808EDFFF7E0FF94BF012000205DF81F
:1009E00008FB00BF4DF808EDFFF7CEFF94BF0120D4
:1009F00000205DF808FB00BF4DF808EDFFF7C4FFCD
:100A000034BF012000205DF808FB00BF4FEA410C15
:100A10007FEA6C5C02D150EA013C0AD14FEA430CF8
:100A20007FEA6C5C02D152EA033C02D14FF0000035
:100A300070474FF0010070474FEA410212F5001273
:100A400015D211D56FF47873B3EB625212D94FEA15
:100A5000C12343F0004343EA505311F0004F23FAFF
:100A600002F018BF404270474FF00000704750EA54
:100A7000013005D111F0004008BF6FF00040704711
:100A80004FF00000704700BF53B94AB9002908BFB2
:100A900000281CBF4FF0FF314FF0FF3000F072B95B
:100AA000ADF1080C6DE904CE00F006F8DDF804E0C5
:100AB000DDE9022304B070472DE9F047089E0D469A
:100AC00004468E46002B4CD18A42944667D9B2FA2E
:100AD00082F353B102FA03FCC3F1200201FA03FED0
:100AE00020FA02F242EA0E0E9C404FEA1C47BEFB7F
:100AF000F7F11FFA8CF507FB11EE01FB05F0220C54
:100B000042EA0E4290420AD91CEB020201F1FF3E7A
:100B100080F01981904240F2168102396244121A23
:100B2000B2FBF7F007FB102200FB05F5A4B244EA84
:100B30000244A5420AD91CEB040400F1FF3280F004
:100B40000481A54240F201816444023840EA014038
:100B50000021641B1EB1DC400023C6E90043BDE850
:100B6000F0878B4208D9002E00F0EA800021C6E908
:100B700000050846BDE8F087B3FA83F1002948D1A3
:100B8000AB4202D3824200F2F880841A65EB030282
:100B900001209646002EE2D0C6E9004EDFE702B9FA
:100BA000FFDEB2FA82F3002B40F08E80881A01211A
:100BB000170C1FFA82FEB0FBF7F507FB1500220C9D
:100BC00042EA00420EFB05F0904208D91CEB0202FB
:100BD00005F1FF3802D2904200F2CC804546121A4D
:100BE000B2FBF7F007FB10220EFB00FEA4B244EAB2
:100BF0000244A64508D91CEB040400F1FF3202D2DE
:100C0000A64500F2B4801046A4EB0E0440EA05406D
:100C1000A0E7C1F120078B4022FA07FC4CEA030C45
:100C200025FA07FA4FEA1C49BAFBF9F88D4020FA79
:100C300007F309FB18AA1FFA8CFE2B4300FA01F5F3
:100C400008FB0EF01C0C44EA0A44A04202FA01F22E
:100C50000BD91CEB040408F1FF3A80F08680A04217
:100C600040F28380A8F102086444241A98B2B4FBCD
:100C7000F9F309FB134403FB0EFE40EA0444A645C6
:100C800008D91CEB040403F1FF306AD2A64568D9E9
:100C9000023B644443EA0840A0FB0293A4EB0E0429
:100CA0009C42C8469E4654D351D0002E67D0B5EB27
:100CB000080364EB0E04CB4004FA07F71F43CC4053
:100CC000C6E9007400214AE702FA03FCC3F12000E0
:100CD000C1409D4024FA00F04FEA1C472843B1FB75
:100CE000F7F507FB15111FFA8CFE020C42EA0142D0
:100CF00005FB0EF1914204FA03F408D91CEB020241
:100D000005F1FF382FD291422DD9023D6244521A8B
:100D1000B2FBF7F107FB112280B240EA024001FB6F
:100D20000EF2824208D91CEB000001F1FF3816D206
:100D3000824214D902396044801A41EA05413AE7F7
:100D4000314630460BE77146E9E61046FEE64D4572
:100D5000ABD2B9EB020863EB0C0E0138A5E74146B4
:100D6000EAE7034696E74546D1E7D0467DE7644487
:100D7000023849E7023D624431E708460AE7314656
:100D8000EDE600BF704700BF80B582B000AF78606D
:100D900039607B6858697B681B6999B23B68012B95
:100DA0000CBF01230023DBB21A4601F0B6FA00BFE4
:100DB0000837BD4680BD80B582B000AF78600121A4
:100DC0007868FFF7E1FF7B6858687B681B689BB217
:100DD0000122194601F0A1FA00BF0837BD4680BDC7
:100DE00080B582B000AF7860786800F0F3FF00BF94
:100DF0000837BD4680BD80B582B000AF7860012164
:100E00007868FFF7C1FF7B6858687B681B689BB2F6
:100E10000022194601F081FA0120FFF7E1FF7B680B
:100E200058687B681B689BB20122194601F075FA6D
:100E30006420FFF7D5FF00BF0837BD4680BD80B5F1
:100E400082B000AF78600B46FB7000217868FFF736
:100E50009BFF7B689869F91C4FF47A73012201F0BB
:100E600009FF00BF7B689B69184602F0F6F903464C
:100E7000012BF7D100BF00BF0837BD4680BD80B54C
:100E800086B002AF78600023FB730023BB730021A0
:100E90007868FFF779FF7B68986907F10E0207F120
:100EA0000F014FF47A730093012302F026F800BF7C
:100EB0007B689B69184602F0D0F90346012BF7D1F5
:100EC000BB7B18461037BD4680BD80B582B000AFF1
:100ED00078607B68DA687B689B689BB2194610462D
:100EE00001F004FA0346012B0CBF01230023DBB2FF
:100EF00018460837BD4680BD80B588B000AF07F101
:100F0000100300221A605A609A60DA60354B9B69C0
:100F1000344A43F010039361324B9B6903F0100392
:100F2000FB60FB682F4B9B692E4A43F004039361DF
:100F30002C4B9B6903F00403BB60BB68294B9B6986
:100F4000284A43F008039361264B9B6903F008038A
:100F50007B607B684FF400533B6100237B6100237F
:100F6000BB6107F1100319461F4801F03BF830231D
:100F70003B6101237B610023BB610223FB6107F11D
:100F800010031946194801F02DF801233B61002395
:100F90007B610023BB6107F110031946144801F07F
:100FA00021F802233B6101237B610023BB61022303
:100FB000FB6107F1100319460D4801F013F80122F7
:100FC00010210A4801F0A9F900222021074801F068
:100FD000A4F901220221064801F09FF900BF203741
:100FE000BD4680BD001002400010014000080140D5
:100FF000000C01400000000080B5A0B006AF00F07A
:1010000087FE00F09BF8FFF777FF00F0DDF800F0B7
:1010100011F900F03FF941F2883000F0DBFE3C4B63
:101020003C4ADA603A4B01229A60394B3A4A5A619B
:10103000374B10221A61364B364A5A60344B022223
:101040001A60334B354A9A61354B314A1A603B4638
:101050003449184600F062F90A23059300230493EB
:101060000023039307230293012301930123009399
:1010700025A3D3E900232A4800F00BFD40F6B83041
:1010800000F0A8FE3B462849184600F047F94FF407
:10109000FA621021224800F053FC0346234A5360B1
:1010A000702387F86730792387F86630722387F8D2
:1010B00065304FF4487000F08DFE194800F0A5FC33
:1010C00003461A46194B5A60184B5B68002BF0DD3B
:1010D000164B5B68DBB21A461549114800F006FD55
:1010E0003B46134A1349184603F05AF83B46184644
:1010F000FFF72EF803469AB239464FF0FF330E48F9
:1011000002F0AEF9D5E700BF8050DE190000000004
:1011100094020020000C014000080140F40100206E
:10112000B00200205064000868640008C803002072
:10113000E80300207C6400084C02002080B590B0D9
:1011400000AF07F1180328220021184603F08BF89E
:101150003B1D00221A605A609A60DA601A6101230E
:10116000BB614FF48033FB6100233B620123BB6210
:1011700002237B634FF48033BB634FF4E013FB63C4
:1011800007F11803184601F0E1F80346002B01D0DF
:1011900000F07AF80F237B600223BB600023FB6022
:1011A0004FF480633B6100237B613B1D02211846A5
:1011B00001F04EFB0346002B01D000F065F800BFA4
:1011C0004037BD4680BD000080B500AF174B184AC0
:1011D0001A60164B4FF482725A60144B00229A60C8
:1011E000124B0022DA60114B00221A610F4B0022D1
:1011F0005A610E4B4FF400729A610C4B0022DA6177
:101200000A4B00221A62094B00225A62074B002245
:101210009A62064B0A22DA62044801F0A7FC0346F0
:10122000002B01D000F030F800BF80BDF401002099
:101230000038004080B500AF114B124A1A60104BC5
:101240004FF4E1325A600E4B00229A600C4B0022A0
:10125000DA600B4B00221A61094B0C225A61084BD1
:1012600000229A61064B0022DA61054802F0A8F8D4
:101270000346002B01D000F007F800BF80BD00BF7F
:101280004C0200200038014080B400AF72B600BFAD
:10129000FEE7000080B400AF0F4B9B690E4A43F499
:1012A000804343F0050393610C4B5B680B4A43F4A6
:1012B0000B635360094BDB68084A43F48063D360D7
:1012C000074B42F20C02DA60054B40F271229A6041
:1012D00000BFBD4680BC70470010024000080140BE
:1012E0000038014080B483B000AF0346FB710A4A66
:1012F000FB79536000BF084B1B6803F04003002BD1
:10130000F9D0054B1B68044A23F04003136000BF6B
:101310000C37BD4680BC70470038014080B584B0B2
:1013200000AF786039603A680E49786802F038FF9B
:101330000023FB6009E0FB687A6813441B781846B9
:10134000FFF7D0FFFB680133FB60FB687A6813444A
:101350001B78002BEFD10A20FFF7C4FF00BF103726
:10136000BD4680BD8064000880B485B000AF154BD9
:101370009B69144A43F001039361124B9B6903F08C
:101380000103BB60BB680F4BDB690E4A43F080531F
:10139000D3610C4BDB6903F080537B607B680A4BA5
:1013A0005B68FB60FB6823F0E063FB60FB6843F075
:1013B0008063FB60044AFB68536000BF1437BD467E
:1013C00080BC7047001002400000014080B588B02A
:1013D00000AF786007F1100300221A605A609A602B
:1013E000DA607B681B681C4A934231D11B4BDB6976
:1013F0001A4A43F48043D361184BDB6903F48043FA
:10140000FB60FB68154B9B69144A43F0080393612A
:10141000124B9B6903F00803BB60BB684FF4204389
:101420003B6102237B610323FB6107F11003194633
:101430000B4800F0D7FD4FF480433B6100237B61F4
:101440000023BB6107F110031946054800F0CAFDEF
:1014500000BF2037BD4680BD00380040001002406C
:10146000000C014080B588B000AF786007F1100330
:1014700000221A605A609A60DA607B681B681C4A16
:10148000934231D11B4B9B691A4A43F480439361C9
:10149000184B9B6903F48043FB60FB68154B9B6909
:1014A000144A43F004039361124B9B6903F0040355
:1014B000BB60BB684FF400733B6102237B61032375
:1014C000FB6107F1100319460B4800F08BFD4FF448
:1014D00080633B6100237B610023BB6107F1100344
:1014E0001946054800F07EFD00BF2037BD4680BD8F
:1014F00000380140001002400008014080B400AFF5
:10150000FEE780B400AFFEE780B400AFFEE780B432
:1015100000AFFEE780B400AFFEE780B400AF00BFCD
:10152000BD4680BC704780B400AF00BFBD4680BCE4
:10153000704780B400AF00BFBD4680BC704780B527
:1015400000AF00F02BFC00BF80BD80B584B000AFC1
:1015500078600B46FB707B681B68FA78114618466A
:10156000FFF76DFC7B681B681846FFF788FC034695
:10157000FB737B681B6801211846FFF705FCFB7BAA
:1015800018461037BD4680BD80B582B000AF786088
:101590000B46FB701346BB707B681B680021184626
:1015A000FFF7F2FB7B681A68FB7863F07F03DBB21E
:1015B00019461046FFF743FC7B681B68BA78114652
:1015C0001846FFF73CFC7B681B6801211846FFF7B3
:1015D000DBFB00BF0837BD4680BD90B587B000AFCC
:1015E000F8607A601A460B46FB721346BB72BB7AF0
:1015F000012B27D9FB681B6800211846FFF7C4FBA5
:10160000FB681B68FA7A11461846FFF718FC00239E
:10161000FB750CE0FB681968FB7D7A68D4180846F6
:10162000FFF72DFC03462370FB7D0133FB75FA7D2C
:10163000BB7A9A42EED3FB681B6801211846FFF77C
:10164000A3FB00E000BF1C37BD4690BD80B586B04F
:1016500000AFF8607A601A460B46FB721346BB7205
:10166000BB7A012B29D9FB681B6800211846FFF7BC
:101670008BFBFB681A68FB7A63F07F03DBB21946C9
:101680001046FFF7DCFB0023FB750BE0FB681868D6
:10169000FB7D7A6813441B781946FFF7D0FBFB7D6E
:1016A0000133FB75FA7DBB7A9A42EFD3FB681B6866
:1016B00001211846FFF768FB00E000BF1837BD4660
:1016C00080BD000080B586B000AF7860786800F01B
:1016D0000DF90F20FFF784FB786800F017F97B689D
:1016E000D3E902234FF000004FF00001D90441EA92
:1016F0005231D0046F4A4FF00003FFF7C5F902469C
:101700000B46C7E90423D7E904014FF000024FF06C
:101710000003020C42EA01420B0CD3B23B73D7E93F
:1017200004014FF000024FF00003020A42EA016296
:101730000B0AD3B27B733B7CBB7307F10C02032310
:1017400006217868FFF782FF342239217868FFF795
:101750001BFF7B681B7C1A46574B9B5C1A46092172
:101760007868FFF711FF0B220B217868FFF70CFF59
:1017700023220C217868FFF707FF7B685B7C1A4601
:101780004E4B9B5C062B47D17B689B7C1A464C4B8F
:101790009B5C1B01DAB27B68DB7C1946494B5B5CC6
:1017A0005B00DBB21344DBB20133DBB21A461D210E
:1017B0007868FFF7E9FE7B685B7C1A463F4B9B5CD1
:1017C0001B01DAB27B681B7D19463F4B5B5C9B00BB
:1017D000DBB21344DBB20333DBB21A461E21786856
:1017E000FFF7D2FE31217868FFF7AFFE0346FB73A7
:1017F000FB7B23F00703FB73FB7B43F00503FB73C9
:10180000FB7B1A4631217868FFF7BEFE0C22372198
:101810007868FFF7B9FE29E07B689B7C1A46284B65
:101820009B5C1B01DAB27B68DB7C1946254B5B5C59
:101830005B00DBB21344DBB21A461D217868FFF768
:10184000A3FE7B685B7C1A461C4B9B5C1B01DAB2D7
:101850007B681B7D19461C4B5B5C9B00DBB2134411
:10186000DBB21A461E217868FFF78EFE042226217D
:101870007868FFF789FE08221F217868FFF784FE49
:10188000002220217868FFF77FFE08222121786856
:10189000FFF77AFE012241217868FFF775FE7B6829
:1018A000002283F81721786800F010F800BF18377D
:1018B000BD4680BD0048E801A8640008AC6400088B
:1018C000B4640008C0640008C464000880B582B035
:1018D00000AF7860092201217868FFF755FE7B6828
:1018E00001229A7500BF0837BD4680BD80B582B021
:1018F00000AF7860082201217868FFF745FE7B6819
:1019000000229A7500BF0837BD4680BD80B582B001
:1019100000AF7860882201217868FFF735FE00BFAC
:101920000837BD4680BD80B582B000AF7860FF2229
:1019300012217868FFF728FE00BF0837BD4680BD3A
:1019400080B586B000AFF8600B467A60FB72FB682A
:10195000FA7A5A75F868FFF7B5FE84224D21F868C7
:10196000FFF712FEFF222421F868FFF70DFE012287
:101970004021F868FFF708FE3F221121F868FFF7C1
:1019800003FEF868FFF7CFFFFB7A1A462221F868BA
:10199000FFF7FAFD0F21F868FFF7D7FD0346FB7547
:1019A000FB7D1A460D21F868FFF7EEFD8D2201211F
:1019B000F868FFF7E9FDFB68002283F8172118217A
:1019C000F868FFF7C2FD034603F00403042B04D1BB
:1019D000FB6803229A75012313E07B68013B7B605F
:1019E0007B68002B09D1FB681B681846FFF703FAD8
:1019F000F868FFF767FE002303E00120FFF7F0F926
:101A0000DDE718461837BD4680BD80B584B000AF0D
:101A100078607B681B681846FFF757FA0346002B6F
:101A200030D07B6817334FF480720021184602F0E3
:101A30001AFC10217868FFF788FD0346BB73BB7B57
:101A40001A460D217868FFF79FFD7B685B7C002BB1
:101A500003D17B685B7DFB7305E013217868FFF79A
:101A600074FD0346FB737B6803F11702FB7B0021C7
:101A70007868FFF7B2FD7B68FA7B83F817217868F6
:101A8000FFF751FF7B6893F8173118461037BD46B2
:101A900080BD80B584B000AFF860C7E90023FB6863
:101AA0001B681846FFF787F9F968D7E90023C1E9F1
:101AB0000223FB683A7E1A74FB683A7F5A74FB680B
:101AC00097F820209A74FB6897F82420DA74FB6852
:101AD00097F828201A75FB6897F82C205A75F86833
:101AE000FFF7F0FD00BF1037BD4680BD80B584B064
:101AF00000AFF860B9601346FB71FB6893F81731CB
:101B0000FA799A4203D0FB6893F81731FB71FB68AE
:101B10001733FA791946B86802F033FCFB79BA68D2
:101B2000134400221A70FB68002283F81721FB7906
:101B300018461037BD4680BD80B400AF012318465B
:101B4000BD4680BC704780B582B000AF7860396018
:101B500002F0DCFB034616221A604FF0FF331846F2
:101B60000837BD4680BD80B582B000AF78604FF0C9
:101B7000FF317868FFF7E7FFFEE780B586B000AF7A
:101B8000F860B9607A6000237B610AE0AFF30080FF
:101B90000146BB685A1CBA60CAB21A707B6901332D
:101BA0007B617A697B689A42F0DB7B68184618375C
:101BB000BD4680BD80B586B000AFF860B9607A6080
:101BC00000237B6109E0BB685A1CBA601B78184689
:101BD000AFF300807B6901337B617A697B689A424D
:101BE000F1DB7B6818461837BD4680BD80B483B0F2
:101BF00000AF78604FF0FF3318460C37BD4680BC0D
:101C0000704780B483B000AF786039603B684FF4B0
:101C100000525A60002318460C37BD4680BC7047FE
:101C200080B483B000AF7860012318460C37BD46FE
:101C300080BC704780B485B000AFF860B9607A604E
:101C4000002318461437BD4680BC704780B586B067
:101C500000AF7860144A154BD31A7B617B693B61F6
:101C6000134B1B68002B02D1114B124A1A60104B08
:101C70001A687B6813443A699A4207D202F046FB1D
:101C800003460C221A604FF0FF3309E0084B1B6833
:101C9000FB60074B1A687B681344054A1360FB68B6
:101CA00018461837BD4680BD0050002000040000D3
:101CB000E80500204007002080B400AF00BFBD460B
:101CC00080BC7047FFF7F8FF0B480C490C4A002313
:101CD00002E0D458C4500433C4188C42F9D3094AE2
:101CE000094C002301E013600432A242FBD302F04E
:101CF00013FBFFF781F9704700000020D40100209A
:101D000074680008D80100203C070020FEE70000AE
:101D100080B500AF084B1B68074A43F010031360FF
:101D2000032000F02BF90F2000F008F8FFF71CFB50
:101D30000023184680BD00BF0020024080B582B05D
:101D400000AF7860124B1A68124B1B7819464FF49B
:101D50007A73B3FBF1F3B2FBF3F3184600F035F9F5
:101D60000346002B01D001230EE07B680F2B0AD81D
:101D7000002279684FF0FF3000F00BF9064A7B68CB
:101D80001360002300E0012318460837BD4680BDDC
:101D900000000020080000200400002080B400AFF4
:101DA000054B1B781A46054B1B681344034A136006
:101DB00000BFBD4680BC704708000020EC05002035
:101DC00080B400AF024B1B681846BD4680BC70470C
:101DD000EC05002080B584B000AF7860FFF7F0FF1D
:101DE000B8607B68FB60FB68B3F1FF3F05D00A4B2E
:101DF0001B781A46FB681344FB6000BFFFF7E0FF47
:101E00000246BB68D31AFA689A42F7D800BF00BFEF
:101E10001037BD4680BD00BF0800002080B485B0EB
:101E200000AF78607B6803F00703FB600C4BDB6856
:101E3000BB60BA684FF6FF031340BB60FB681A0231
:101E4000BB68134343F0BF6343F40033BB60044AF1
:101E5000BB68D36000BF1437BD4680BC704700BF6D
:101E600000ED00E080B400AF044BDB681B0A03F018
:101E700007031846BD4680BC704700BF00ED00E078
:101E800080B483B000AF03463960FB7197F9073027
:101E9000002B0ADB3B68DAB20C4997F907301201D4
:101EA000D2B20B4483F800230AE03B68DAB2084957
:101EB000FB7903F00F03043B1201D2B20B441A76F4
:101EC00000BF0C37BD4680BC704700BF00E100E09A
:101ED00000ED00E080B489B000AFF860B9607A60CE
:101EE000FB6803F00703FB61FB69C3F10703042BE5
:101EF00028BF0423BB61FB690433062B02D9FB69AD
:101F0000033B00E000237B614FF0FF32BB6902FA24
:101F100003F3DA43BB681A407B699A404FF0FF3104
:101F20007B6901FA03F3D9437B680B4013431846DE
:101F30002437BD4680BC704780B582B000AF786062
:101F40007B68013BB3F1807F01D301230FE00A4A94
:101F50007B68013B53600F214FF0FF30FFF790FF8C
:101F6000054B00229A60044B07221A600023184692
:101F70000837BD4680BD00BF10E000E080B582B0EC
:101F800000AF78607868FFF749FF00BF0837BD46AB
:101F900080BD80B586B000AF0346B9607A60FB7340
:101FA00000237B61FFF75EFF78617A68B968786922
:101FB000FFF790FF024697F90F3011461846FFF7DA
:101FC0005FFF00BF1837BD4680BD80B582B000AF4F
:101FD00078607868FFF7B0FF034618460837BD46BB
:101FE00080BD000080B48BB000AF78603960002302
:101FF0007B6200233B6269E101227B6A02FA03F300
:10200000FB613B681B68FA691340BB61BA69FB69F5
:102010009A4240F058813B685B689A4A93425ED08E
:10202000984A934275D8984A934258D0964A934218
:102030006FD8964A934252D0944A934269D8944AB0
:1020400093424CD0924A934263D8924A934246D0EC
:10205000904A93425DD8122B2AD8122B59D801A24C
:1020600052F823F0DF200008B9200008CB20000838
:102070000D21000813210008132100081321000876
:102080001321000813210008132100081321000860
:102090001321000813210008132100081321000850
:1020A0001321000813210008C1200008D5200008D2
:1020B000794A934213D02CE03B68DB683B6229E00D
:1020C0003B68DB6804333B6224E03B68DB68083331
:1020D0003B621FE03B68DB680C333B621AE03B6805
:1020E0009B68002B02D104233B6213E03B689B6892
:1020F000012B05D108233B627B68FA691A6109E06C
:1021000008233B627B68FA695A6103E000233B6263
:1021100000E000BFBB69FF2B01D87B6801E07B6852
:1021200004337B61BB69FF2B02D87B6A9B0002E012
:102130007B6A083B9B003B617B691A680F213B6906
:1021400001FA03F3DB431A40396A3B6901FA03F3EE
:102150001A437B691A603B685B6803F08053002B6D
:1021600000F0B1804D4B9B694C4A43F001039361F1
:102170004A4B9B6903F00103BB60BB68484A7B6A1A
:102180009B08023352F82330FB607B6A03F00303A1
:102190009B000F2202FA03F3DB43FA681340FB6053
:1021A0007B68404A934213D07B683F4A93420DD0EC
:1021B0007B683E4A934207D07B683D4A934201D1F7
:1021C000032306E0042304E0022302E0012300E0ED
:1021D00000237A6A02F0030292009340FA681343E4
:1021E000FB602F497B6A9B080233FA6841F8232081
:1021F0003B685B6803F48013002B06D02D4B9A6874
:102200002C49BB6913438B6006E02A4B9A68BB6973
:10221000DB43284913408B603B685B6803F4001381
:10222000002B06D0234BDA682249BB691343CB60ED
:1022300006E0204BDA68BB69DB431E491340CB60E4
:102240003B685B6803F40033002B06D0194B5A68D7
:102250001849BB6913434B6006E0164B5A68BB69CB
:10226000DB43144913404B603B685B6803F48033E5
:10227000002B21D00F4B1A680E49BB6913430B602A
:1022800021E000BF000032100000311000002210D9
:102290000000211000001210000011100010024078
:1022A0000000014000080140000C01400010014006
:1022B00000140140000401400B4B1A68BB69DB436A
:1022C000094913400B607B6A01337B623B681A68E3
:1022D0007B6A22FA03F3002B7FF48EAE00BF00BFAF
:1022E0002C37BD4680BC70470004014080B485B0E7
:1022F00000AF78600B467B807B689A687B881340D0
:10230000002B02D00123FB7301E00023FB73FB7B56
:1023100018461437BD4680BC704780B483B000AF08
:1023200078600B467B8013467B707B78002B03D054
:102330007A887B681A6103E07B881A047B681A61DB
:1023400000BF0C37BD4680BC7047000080B586B02A
:1023500000AF78607B68002B01D1012372E27B68BB
:102360001B6803F00103002B00F08780924B5B6831
:1023700003F00C03042B0CD08F4B5B6803F00C03B1
:10238000082B12D18C4B5B6803F48033B3F5803F8C
:102390000BD1894B1B6803F40033002B6CD07B6896
:1023A0005B68002B68D101234CE27B685B68B3F566
:1023B000803F06D1804B1B687F4A43F48033136013
:1023C0002EE07B685B68002B0CD17B4B1B687A4A44
:1023D00023F480331360784B1B68774A23F48023FF
:1023E00013601DE07B685B68B3F5A02F0CD1724BC6
:1023F0001B68714A43F4802313606F4B1B686E4A5D
:1024000043F4803313600BE06B4B1B686A4A23F480
:1024100080331360684B1B68674A23F48023136082
:102420007B685B68002B13D0FFF7CAFC386108E0BB
:10243000FFF7C6FC02463B69D31A642B01D903237C
:1024400000E25D4B1B6803F40033002BF0D014E076
:10245000FFF7B6FC386108E0FFF7B2FC02463B69C3
:10246000D31A642B01D90323ECE1534B1B6803F40B
:102470000033002BF0D100E000BF7B681B6803F045
:102480000203002B63D04C4B5B6803F00C03002B62
:102490000BD0494B5B6803F00C03082B1CD1464B57
:1024A0005B6803F48033002B16D1434B1B6803F0A9
:1024B0000203002B05D07B681B69012B01D001238F
:1024C000C0E13D4B1B6823F0F8027B685B69DB00D1
:1024D000394913430B603AE07B681B69002B20D01D
:1024E000364B01221A60FFF76BFC386108E0FFF7FA
:1024F00067FC02463B69D31A022B01D90323A1E1F1
:102500002D4B1B6803F00203002BF0D02A4B1B68F5
:1025100023F0F8027B685B69DB00274913430B60FB
:1025200015E0264B00221A60FFF74AFC386108E0EC
:10253000FFF746FC02463B69D31A022B01D903235D
:1025400080E11D4B1B6803F00203002BF0D17B6878
:102550001B6803F00803002B3AD07B689B69002BB3
:1025600019D0174B01221A60FFF72AFC386108E0E6
:10257000FFF726FC02463B69D31A022B01D903233D
:1025800060E10D4B5B6A03F00203002BF0D00120E9
:1025900000F0CEFA1CE00A4B00221A60FFF710FC94
:1025A00038610FE0FFF70CFC02463B69D31A022B9F
:1025B00008D9032346E100BF001002400000424258
:1025C00080044242924B5B6A03F00203002BE9D184
:1025D0007B681B6803F00403002B00F0A680002337
:1025E000FB758B4BDB6903F08053002B0DD1884BBF
:1025F000DB69874A43F08053D361854BDB6903F085
:102600008053BB60BB680123FB75824B1B6803F4DE
:102610008073002B18D17F4B1B687E4A43F4807374
:102620001360FFF7CDFB386108E0FFF7C9FB0246F6
:102630003B69D31A642B01D9032303E1754B1B6853
:1026400003F48073002BF0D07B68DB68012B06D18C
:102650006F4B1B6A6E4A43F0010313622DE07B68E7
:10266000DB68002B0CD16A4B1B6A694A23F001031B
:102670001362674B1B6A664A23F0040313621CE073
:102680007B68DB68052B0CD1614B1B6A604A43F009
:10269000040313625E4B1B6A5D4A43F0010313623D
:1026A0000BE05B4B1B6A5A4A23F001031362584B41
:1026B0001B6A574A23F0040313627B68DB68002B14
:1026C00015D0FFF77DFB38610AE0FFF779FB024682
:1026D0003B69D31A41F28832934201D90323B1E016
:1026E0004B4B1B6A03F00203002BEED014E0FFF704
:1026F00067FB38610AE0FFF763FB02463B69D31AC8
:1027000041F28832934201D903239BE0404B1B6A7C
:1027100003F00203002BEED1FB7D012B05D13C4BD6
:10272000DB693B4A23F08053D3617B68DB69002B74
:1027300000F08780364B5B6803F00C03082B61D0F8
:102740007B68DB69022B46D1334B00221A60FFF70E
:1027500037FB386108E0FFF733FB02463B69D31AC9
:10276000022B01D903236DE0294B1B6803F0007392
:10277000002BF0D17B681B6AB3F5803F08D1244B56
:102780005B6823F400327B689B68214913434B60EC
:102790001F4B5B6823F474127B68196A7B685B6A61
:1027A0000B431B4913434B601B4B01221A60FFF77D
:1027B00007FB386108E0FFF703FB02463B69D31AC9
:1027C000022B01D903233DE0114B1B6803F000737A
:1027D000002BF0D035E0104B00221A60FFF7F0FA22
:1027E000386108E0FFF7ECFA02463B69D31A022B86
:1027F00001D9032326E0064B1B6803F00073002B6E
:10280000F0D11EE07B68DB69012B07D1012319E0C1
:102810000010024000700040600042420B4B5B68B9
:10282000FB60FB6803F480327B681B6A9A4206D126
:10283000FB6803F470127B685B6A9A4201D0012343
:1028400000E0002318461837BD4680BD0010024046
:1028500080B584B000AF786039607B68002B01D10F
:102860000123D0E06A4B1B6803F007033A689A42E1
:1028700010D9674B1B6823F0070265493B68134377
:102880000B60634B1B6803F007033A689A4201D060
:102890000123B8E07B681B6803F00203002B20D003
:1028A0007B681B6803F00403002B05D0594B5B6861
:1028B000584A43F4E06353607B681B6803F00803E5
:1028C000002B05D0534B5B68524A43F4605353606E
:1028D000504B5B6823F0F0027B689B684D491343C3
:1028E0004B607B681B6803F00103002B40D07B68C2
:1028F0005B68012B07D1474B1B6803F40033002BA7
:1029000015D101237FE07B685B68022B07D1414B27
:102910001B6803F00073002B09D1012373E03D4BCA
:102920001B6803F00203002B01D101236BE0394B3C
:102930005B6823F003027B685B68364913434B6096
:10294000FFF73EFAF8600AE0FFF73AFA0246FB6842
:10295000D31A41F28832934201D9032353E02D4B1D
:102960005B6803F00C027B685B689B009A42EBD1CA
:10297000274B1B6803F007033A689A4210D2244B96
:102980001B6823F0070222493B6813430B60204B6E
:102990001B6803F007033A689A4201D0012332E032
:1029A0007B681B6803F00403002B08D0194B5B689D
:1029B00023F4E0627B68DB68164913434B607B6855
:1029C0001B6803F00803002B09D0124B5B6823F44B
:1029D00060527B681B69DB000E4913434B6000F0BB
:1029E00021F802460B4B5B681B0903F00F030A49F1
:1029F000CB5C22FA03F3094A1360094B1B681846A3
:102A0000FFF79CF9002318461037BD4680BD00BF74
:102A10000020024000100240C864000800000020AE
:102A20000400002080B487B000AF0023FB600023C7
:102A3000BB6000237B6100237B6000233B611E4B56
:102A40005B68FB60FB6803F00C03042B02D0082BCF
:102A500003D027E0194B3B6127E0FB689B0C03F098
:102A60000F03174AD35C7B60FB6803F48033002BB1
:102A700010D0114B5B685B0C03F00103114AD35C6F
:102A8000BB607B680D4A03FB02F2BB68B2FBF3F349
:102A90007B6104E07B680C4A02FB03F37B617B698A
:102AA0003B6102E0054B3B6100BF3B6918461C37A8
:102AB000BD4680BC704700BF0010024000127A0083
:102AC000E0640008F064000800093D0080B400AF35
:102AD000024B1B681846BD4680BC704700000020B2
:102AE00080B500AFFFF7F2FF0246054B5B681B0A9B
:102AF00003F007030349CB5C22FA03F3184680BDB9
:102B000000100240D864000880B500AFFFF7DEFF78
:102B10000246054B5B68DB0A03F007030349CB5C05
:102B200022FA03F3184680BD00100240D864000862
:102B300080B485B000AF78600A4B1B680A4AA2FBDC
:102B400003235B0A7A6802FB03F3FB6000BFFB68A8
:102B50005A1EFA60002BF9D100BF00BF1437BD46E2
:102B600080BC704700000020D34D621080B582B059
:102B700000AF78607B68002B01D1012376E07B6891
:102B80005B6A002B08D17B685B68B3F5827F09D054
:102B90007B680022DA6105E07B6800221A617B68AD
:102BA00000225A617B6800229A627B6893F8513058
:102BB000DBB2002B06D17B68002283F850207868B6
:102BC000FEF704FC7B68022283F851207B681B68B7
:102BD0001A687B681B6822F040021A607B685B6899
:102BE00003F482727B689B6803F404431A437B6896
:102BF000DB6803F400631A437B681B6903F002037C
:102C00001A437B685B6903F001031A437B689B6985
:102C100003F400731A437B68DB6903F038031A433B
:102C20007B681B6A03F0800342EA03017B689B6AAE
:102C300003F400527B681B680A431A607B689B6937
:102C40001A0C7B681B6802F004025A607B681B68E0
:102C5000DA697B681B6822F40062DA617B68002213
:102C60005A657B68012283F85120002318460837F3
:102C7000BD4680BD80B588B000AFF860B9603B60EC
:102C80001346FB800023FB77FB6893F85030012B41
:102C900001D102232DE1FB68012283F85020FFF7C8
:102CA0008FF8B861FB88FB82FB6893F85130DBB288
:102CB000012B02D00223FB7716E1BB68002B02D068
:102CC000FB88002B02D10123FB770DE1FB68032277
:102CD00083F85120FB6800225A65FB68BA681A63C2
:102CE000FB68FA889A86FB68FA88DA86FB68002215
:102CF0009A63FB6800229A87FB680022DA87FB68E8
:102D000000225A64FB6800221A64FB689B68B3F5D2
:102D1000004F0FD1FB681B681A68FB681B6822F024
:102D200040021A60FB681B681A68FB681B6842F463
:102D300080421A60FB681B681B6803F04003402B4D
:102D400007D0FB681B681A68FB681B6842F04002EA
:102D50001A60FB68DB68B3F5006F4FD1FB685B68F6
:102D6000002B02D0FB8A012B42D1FB681B6B1A8817
:102D7000FB681B68DA60FB681B6B9A1CFB681A63B4
:102D8000FB68DB8E9BB2013B9AB2FB68DA862FE0D0
:102D9000FB681B689B6803F00203022B12D1FB68DF
:102DA0001B6B1A88FB681B68DA60FB681B6B9A1C3C
:102DB000FB681A63FB68DB8E9BB2013B9AB2FB682F
:102DC000DA8615E0FEF7FCFF0246BB69D31A3A68C3
:102DD0009A4203D83B68B3F1FF3F02D13B68002B16
:102DE00006D10323FB77FB68012283F851207BE0A7
:102DF000FB68DB8E9BB2002BCAD150E0FB685B689E
:102E0000002B02D0FB8A012B44D1FB681A6BFB68B4
:102E10001B680C3312781A70FB681B6B5A1CFB681A
:102E20001A63FB68DB8E9BB2013B9AB2FB68DA86C1
:102E300030E0FB681B689B6803F00203022B13D190
:102E4000FB681A6BFB681B680C3312781A70FB68FE
:102E50001B6B5A1CFB681A63FB68DB8E9BB2013B41
:102E60009AB2FB68DA8615E0FEF7AAFF0246BB6954
:102E7000D31A3A689A4203D83B68B3F1FF3F02D1B4
:102E80003B68002B06D10323FB77FB68012283F804
:102E9000512029E0FB68DB8E9BB2002BC9D1BA69B7
:102EA0003968F86800F06EFA0346002B02D0FB6820
:102EB00020225A65FB689B68002B0AD100233B61E6
:102EC000FB681B68DB683B61FB681B689B683B61B8
:102ED0003B69FB685B6D002B02D00123FB7703E0AD
:102EE000FB68012283F85120FB68002283F8502000
:102EF000FB7F18462037BD4680BD80B58CB000AF43
:102F0000F860B9607A607B800123FB62002387F858
:102F10002B30FB6893F85030012B01D1022398E14C
:102F2000FB68012283F85020FEF74AFF7862FB68B5
:102F300093F8513087F82330FB685B68FB617B882E
:102F40007B8397F82330012B0FD0FB69B3F5827F89
:102F500007D1FB689B68002B03D197F82330042B23
:102F600003D0022387F82B306DE1BB68002B05D01E
:102F70007B68002B02D07B88002B03D1012387F8CC
:102F80002B3060E1FB6893F85130DBB2042B03D0A7
:102F9000FB68052283F85120FB6800225A65FB6814
:102FA0007A689A63FB687A88DA87FB687A889A87F6
:102FB000FB68BA681A63FB687A88DA86FB687A88E5
:102FC0009A86FB6800221A64FB6800225A64FB6838
:102FD0001B681B6803F04003402B07D0FB681B688D
:102FE0001A68FB681B6842F040021A60FB68DB68E5
:102FF000B3F5006F7CD1FB685B68002B02D07B8B44
:10300000012B6AD1FB681B6B1A88FB681B68DA60AE
:10301000FB681B6B9A1CFB681A63FB68DB8E9BB218
:10302000013B9AB2FB68DA8657E0FB681B689B6835
:1030300003F00203022B1BD1FB68DB8E9BB2002B3B
:1030400016D0FB6A012B13D1FB681B6B1A88FB6837
:103050001B68DA60FB681B6B9A1CFB681A63FB68D1
:10306000DB8E9BB2013B9AB2FB68DA860023FB62DF
:10307000FB681B689B6803F00103012B19D1FB68F7
:10308000DB8F9BB2002B14D0FB681B68DA68FB68EF
:103090009B6B92B21A80FB689B6B9A1CFB689A63CD
:1030A000FB68DB8F9BB2013B9AB2FB68DA87012396
:1030B000FB62FEF785FE02467B6AD31ABA6B9A4220
:1030C0000BD8BB6BB3F1FF3F07D0032387F82B303E
:1030D000FB68012283F85120B5E0FB68DB8E9BB2D0
:1030E000002BA2D1FB68DB8F9BB2002B9DD180E02F
:1030F000FB685B68002B02D07B8B012B6FD1FB68D8
:103100001A6BFB681B680C3312781A70FB681B6B18
:103110005A1CFB681A63FB68DB8E9BB2013B9AB2B8
:10312000FB68DA865BE0FB681B689B6803F00203C0
:10313000022B1CD1FB68DB8E9BB2002B17D0FB6AE5
:10314000012B14D1FB681A6BFB681B680C331278D7
:103150001A70FB681B6B5A1CFB681A63FB68DB8EDA
:103160009BB2013B9AB2FB68DA860023FB62FB68E4
:103170001B689B6803F00103012B19D1FB68DB8FEF
:103180009BB2002B14D0FB681B68DA68FB689B6B52
:10319000D2B21A70FB689B6B5A1CFB689A63FB687F
:1031A000DB8F9BB2013B9AB2FB68DA870123FB629B
:1031B000FEF706FE02467B6AD31ABA6B9A4203D820
:1031C000BB6BB3F1FF3F02D1BB6B002B07D10323D5
:1031D00087F82B30FB68012283F8512033E0FB682D
:1031E000DB8E9BB2002B9ED1FB68DB8F9BB2002B4A
:1031F00099D17A6AB96BF86800F0C4F80346002BDD
:1032000006D0012387F82B30FB6820225A651AE08C
:10321000FB689B68002B0AD100237B61FB681B685D
:10322000DB687B61FB681B689B687B617B69FB6873
:103230005B6D002B03D0012387F82B3003E0FB6884
:10324000012283F85120FB68002283F8502097F870
:103250002B3018463037BD4680BD80B483B000AFF8
:1032600078607B6893F85130DBB218460C37BD4666
:1032700080BC704780B588B000AFF860B9603B6033
:103280001346FB71FEF79CFD0246BB6A9B1A3A6827
:103290001344FB61FEF794FDB861394B1B685B0179
:1032A0001B0DFA6902FB03F37B6154E03B68B3F149
:1032B000FF3F50D0FEF784FD0246BB69D31AFA697E
:1032C0009A4202D9FB69002B3DD1FB681B685A6802
:1032D000FB681B6822F0E0025A60FB685B68B3F58C
:1032E000827F11D1FB689B68B3F5004F04D0FB6867
:1032F0009B68B3F5806F07D1FB681B681A68FB6891
:103300001B6822F040021A60FB689B6AB3F5005FFD
:103310000FD1FB681B681A68FB681B6822F4005217
:103320001A60FB681B681A68FB681B6842F400524D
:103330001A60FB68012283F85120FB68002283F8A1
:103340005020032317E07B69002B01D10023FB6190
:103350007B69013B7B61FB681B689A68BB68134013
:10336000BA689A420CBF01230023DBB21A46FB79EC
:103370009A429BD1002318462037BD4680BD00BF2E
:103380000000002080B586B002AFF860B9607A60B6
:103390007B680093BB6800228021F868FFF76AFF12
:1033A0000346002B07D0FB685B6D43F02002FB68EF
:1033B0005A65032300E0002318461037BD4680BD40
:1033C00080B582B000AF78607B68002B01D101230B
:1033D00042E07B6893F84130DBB2002B06D17B687A
:1033E000002283F840207868FEF73CF87B682422AE
:1033F00083F841207B681B68DA687B681B6822F4CD
:103400000052DA60786800F01DF97B681B681A6961
:103410007B681B6822F490421A617B681B685A69BA
:103420007B681B6822F02A025A617B681B68DA6895
:103430007B681B6842F40052DA607B6800225A64A1
:103440007B68202283F841207B68202283F8422079
:103450007B6800225A63002318460837BD4680BDAA
:1034600080B58AB002AFF860B9603B601346FB805C
:1034700000237B61FB6893F84130DBB2202B6DD1D8
:10348000BB68002B02D0FB88002B01D1012366E032
:10349000FB6800225A64FB68212283F84120FEF772
:1034A0008FFC7861FB68FA889A84FB68FA88DA8472
:1034B000FB689B68B3F5805F08D1FB681B69002B34
:1034C00004D10023FB61BB68BB6103E0BB68FB6107
:1034D0000023BB612AE03B6800937B6900228021C6
:1034E000F86800F040F80346002B01D0032336E0D3
:1034F000FB69002B0BD1BB691B881A46FB681B6854
:10350000C2F308025A60BB690233BB6107E0FB6982
:103510001A78FB681B685A60FB690133FB61FB6822
:10352000DB8C9BB2013B9AB2FB68DA84FB68DB8CD4
:103530009BB2002BCFD13B6800937B6900224021D6
:10354000F86800F010F80346002B01D0032306E0D2
:10355000FB68202283F84120002300E00223184664
:103560002037BD4680BD80B590B000AFF860B9602F
:103570003B601346FB7150E0BB6CB3F1FF3F4CD096
:10358000BB6C002B07D0FEF71BFC02463B68D31A2E
:10359000BA6C9A4241D2FB681B680C33BB62BB6AAF
:1035A00053E8003F7B627B6A23F4D073FB63FB68C4
:1035B0001B680C33FA6B7A633B63396B7A6B41E8B7
:1035C0000023FB62FB6A002BE5D1FB681B68143308
:1035D0007B617B6953E8003F3B613B6923F001035A
:1035E000BB63FB681B681433BA6B3A62FB61F96911
:1035F0003A6A41E80023BB61BB69002BE5D1FB6857
:10360000202283F84120FB68202283F84220FB68B7
:10361000002283F8402003230FE0FB681B681A6830
:10362000BB681340BA689A420CBF01230023DBB287
:103630001A46FB799A429FD0002318464037BD4670
:1036400080BD000080B584B000AF78607B681B68E7
:103650001B6923F440517B68DA687B681B680A4366
:103660001A617B689A687B681B691A437B685B698F
:103670001343BB607B681B68DB6823F4B05323F003
:103680000C037A681268B9680B43D3607B681B68C7
:103690005B6923F440717B689A697B681B680A4305
:1036A0005A617B681B682C4A934203D1FFF72CFABE
:1036B000F86002E0FFF714FAF860FA6813469B001E
:1036C00013449A001A447B685B689B00B2FBF3F3D7
:1036D000224AA2FB03235B091901FA6813469B00E7
:1036E00013449A001A447B685B689B00B2FBF3F2B8
:1036F0001A4BA3FB02035B09642000FB03F3D31AFC
:103700001B013233154AA2FB03235B0903F0F003CC
:103710001944FA6813469B0013449A001A447B68C4
:103720005B689B00B2FBF3F20C4BA3FB02035B094B
:10373000642000FB03F3D31A1B013233074AA2FBB8
:1037400003235B0903F00F027B681B680A449A603D
:1037500000BF1037BD4680BD003801401F85EB51CA
:10376000002B2DE9F0471F46BBBF03F100431F4666
:1037700000232D2388B01446129A109D1370149BB9
:10378000DDF84CA023F02008B8F1460F05D0B8F1C1
:10379000450F00D10135022300E0032307AA04925C
:1037A00006AACDE902A2CDE9003522463B4600F04B
:1037B0007FFEB8F1470F064602D1119BDB0722D5E9
:1037C000B8F1460F06EB050910D13378302B0AD13A
:1037D0000022002320463946FDF7E6F818B9C5F166
:1037E0000105CAF80050DAF800309944002200239D
:1037F00020463946FDF7D8F808B1CDF81C903022A4
:10380000079B4B4507D33046079B159A9B1B1360BC
:1038100008B0BDE8F087591C07911A70F0E703461D
:10382000F7B5002903F8022BB6BF2D222B224942FF
:10383000092942702ADD0DF1070217460A2691FB7D
:10384000F6F5944606FB151430340CF8014C0C4682
:10385000632C294602F1FF32F1DC3031ACF1020475
:1038600002F8011C2246411CBA420AD30DF109029A
:10387000A2EB0C02BC4288BF00221344181A03B00A
:10388000F0BD12F8015B01F8015FEDE73023303144
:103890008370C170031DF1E72DE9F04F91B00C4624
:1038A000DDF8688016461F46054600F0E5FC036813
:1038B00018460993FCF74CFC00230E93D8F800300F
:1038C0000A90073323F0070303F1080294F81890D5
:1038D000D4F800B0C8F80020D3E900A85246434607
:1038E000C4E9122328F000430B934FF0FF325046F7
:1038F0009C4B0B99FDF78AF870BB4FF0FF32504696
:10390000984B0B99FDF764F830BB0022002350461A
:103910004146FDF753F810B12D2384F84330924A05
:10392000924BB9F1470F94BF9046984603234FF04E
:10393000000A23612BF00403236033462146284606
:1039400000970FAA00F0D6F9013040F090804FF0B8
:10395000FF3011B0BDE8F08F524643465046414615
:10396000FDF754F848B1B8F1000FB8BF2D23804AD5
:10397000B8BF84F843307F4BD3E7636809F0DF01B9
:103980005A1C42D106236360002206920EAACDE99A
:1039900004920DAA4BF4806303920DF13302CDE93A
:1039A00001322360636852460093284643460B91D8
:1039B000FFF7D6FE0B99804647290D9908D1C81C00
:1039C00002DB6368994240DDA9F102095FFA89F9D7
:1039D000B9F1650F1FD84A46013904F150000D9125
:1039E000FFF71DFF0E9A82461318012A236102DC9D
:1039F0002268D20701D5013323619DF83330002BB3
:103A00009BD02D2384F8433097E74729BCD1002B66
:103A1000BAD10123B7E7B9F1660F18D1002963685D
:103A20000BDD216113B92268D00702D501330B44A5
:103A300023614FF0000AA165DFE713B92268D207BE
:103A400001D50233F4E70123F2E74FF067090E9B3B
:103A5000994205DB23682161D807EAD54B1CE7E7CB
:103A60000029CCBF0122C1F102021344E0E7236820
:103A70005A0507D42369424631462846B8470130E3
:103A80002BD164E7B9F1650F40F2DD80D4E9120172
:103A900000220023FCF788FF002833D001233146A1
:103AA0002846354AB84701303FF451AFDDE90D23D0
:103AB0009A4202DB2368D8070FD5DDE90923314696
:103AC0002846B84701303FF442AF4FF0000804F1F8
:103AD0001A090E9B013B434509DC23689B0700F153
:103AE0000481E0680F9B9842B8BF184631E7012374
:103AF0004A4631462846B84701303FF428AF08F11E
:103B00000108E6E70D9B002B38DC012331462846EF
:103B1000194AB84701303FF41AAFDDE90D321343BB
:103B200002D12368D907D8D5DDE9092331462846D3
:103B3000B84701303FF40BAF4FF0000904F11A0A07
:103B40000D9B5B424B4501DC0E9B94E701235246E3
:103B500031462846B84701303FF4F9AE09F1010972
:103B6000EEE700BFFFFFEF7FF2640008F664000895
:103B7000FA640008FE640008026500080E9AA36D4E
:103B80009A42A8BF1A46002A914637DC4FF0000B34
:103B900029EAE97904F11A02D4F858A0AAEB09033A
:103BA0005B4533DCDDE90D239A423BDB2368DA0712
:103BB00038D4DDE90D32A2EB0309A2EB0A029145EC
:103BC000A8BF9146B9F1000F34DC4FF0000829EA94
:103BD000E97904F11A0ADDE90D239B1AA3EB090325
:103BE00043457FF77AAF0123524631462846B8470E
:103BF00001303FF4ACAE08F10108ECE71346314662
:103C000042462846B8470130C0D1A0E601233146DC
:103C100028460B92B84701303FF499AE0B9A0BF14E
:103C2000010BB9E73146DDE909232846B8470130E1
:103C3000BFD18CE64B463146284608EB0A02B8470E
:103C40000130C2D183E60E9A012A01DCDB0739D5A7
:103C50000123424631462846B84701303FF477AE4B
:103C6000DDE9092331462846B84701303FF46FAEFD
:103C7000D4E9120100220023DDF83890FCF794FE0D
:103C8000D8B909F1FF3308F1010231462846B84797
:103C900001300ED15BE601234A4631462846B8473B
:103CA00001303FF454AE08F101080E9B013B43453F
:103CB000F1DC534604F15002DEE64FF0000804F157
:103CC0001A09F2E701234246DFE701234A4631465B
:103CD0002846B84701303FF43AAE08F10108E368DE
:103CE0000F995B1A4345F0DCFBE64FF0000804F146
:103CF0001909F4E72DE9F047164699468A680B69D9
:103D000007469342B8BF1346336091F843200C46F0
:103D1000DDF820800AB1013333602368990642BF81
:103D2000336802333360256815F0060506D104F1C7
:103D3000190AE36832689B1AAB422BDC94F84320E3
:103D4000131E226818BF0123920630D44946384614
:103D500004F14302C047013023D02368226903F0F5
:103D60000603042B14BF002533684FF0000608BF7C
:103D7000E56804F11A0408BFED1A54F8123C08BFB4
:103D800025EAE5759342C4BF9B1AED18B5421AD1D6
:103D9000002008E00123524649463846C04701301A
:103DA00003D14FF0FF30BDE8F0870135C1E7302087
:103DB000E11881F843005A1C94F84510224402335C
:103DC00082F84310C2E70123224649463846C047DD
:103DD0000130E6D00136D9E72DE9FF470F7E914645
:103DE000782F80460C469A460C9D01F1430207D875
:103DF000622F0AD8002F00F0D580582F00F0C18024
:103E000004F1420584F842703AE0A7F16303152BF0
:103E1000F6D801A151F823F0713E0008853E000854
:103E2000013E0008013E0008013E0008013E000876
:103E3000853E0008013E0008013E0008013E0008E2
:103E4000013E00088B3F0008B13E0008453F0008D6
:103E5000013E0008013E0008AD3F0008013E000899
:103E6000B13E0008013E0008013E00084D3F000839
:103E70002B681A1D1B682A6004F1420584F8423041
:103E80000123A0E020682B68070603F104012960E4
:103E900001D51E6803E04606FBD5B3F90060002E8D
:103EA00003DA2D23764284F843300A23594812E07E
:103EB0002B682068191D2960050601D51E6802E0DF
:103EC0004106FBD51E886F2F0CBF08230A235148DB
:103ED000002184F843106568002DA8BF2168A56003
:103EE000A4BF21F0040121600EB9002D4BD015466E
:103EF000B6FBF3F103FB1167C75D05F8017D37469B
:103F0000BB420E46F4D9082B0BD12368DE0708D537
:103F1000236961689942DEBF302305F8013C05F151
:103F2000FF35521B22614B4621464046CDF800A08A
:103F300003AAFFF7DFFE01304AD14FF0FF3004B093
:103F4000BDE8F087236843F02003236078273248D8
:103F500084F84570236829681F0651F8046B02D461
:103F60005F0648BFB6B2DF0748BF43F020032960B1
:103F700048BF23601EB9236823F020032360102369
:103F8000A6E72448E4E71546BDE72B682668181D18
:103F90006169286035061B6801D5196002E070066A
:103FA000FBD51980002315462361BCE72B6800214F
:103FB0001A1D2A601D686268284600F0D4F908B10D
:103FC000401B606063682361002384F84330AAE7E4
:103FD0002A46494640462369D0470130ADD0236880
:103FE0009B0713D4E068039B9842B8BF1846A6E726
:103FF0000123324649464046D04701309DD0013525
:10400000E36803995B1AAB42F2DCEBE7002504F1AD
:104010001906F5E70465000815650008002310B5CA
:104020000446C0E90033C0E90433836081814366FC
:10403000C2818361194608225C3000F014F90D4BEF
:10404000246263620C4BA3620C4BE3620C4B236350
:104050000C4B9C4206D003F16802944202D0D0334C
:104060009C4205D104F15800BDE8104000F078B939
:1040700010BD00BFE1410008034200083B420008B8
:104080005F420008F0050020024A0349034800F09F
:1040900069B800BF0C000020155D00081800002062
:1040A00041680C4B10B59942044601D001F032FE34
:1040B000A168094B994202D0204601F02BFEE1682D
:1040C000064B994204D02046BDE8104001F022BEC4
:1040D00010BD00BFF005002058060020C0060020DB
:1040E00010B50B4B0B4C0C4A20461A6004210022E1
:1040F000FFF794FF04F1680001220921FFF78EFF0A
:1041000004F1D0000222BDE810401221FFF786BF63
:1041100028070020F005002089400008014800F031
:1041200020B900BF31070020014800F01BB900BFD3
:104130003107002010B50446FFF7F0FF236A1BB1DA
:10414000BDE81040FFF7F0BF044B2362044B1B682F
:10415000002BF5D1FFF7C4FFF2E700BFA140000834
:10416000280700202DE9F843074688461446002614
:10417000D4E90195B9F1010905D52468002CF7D1DE
:104180003046BDE8F883AB89012B07D9B5F90E306D
:10419000013303D029463846C04706436835E9E76E
:1041A0000EB46FF0004100B59CB01DAB02900690BC
:1041B000079104910848094953F8042B05910068B8
:1041C00002A9019301F026FC0022029B1A701CB088
:1041D0005DF804EB03B07047640000200802FFFFA5
:1041E00010B50C46B1F90E1000F06CF80028ABBF0A
:1041F000636DA3891B1823F48053ACBF6365A3814F
:1042000010BD2DE9F0411F468B890546DB050C46A4
:10421000164605D502230022B1F90E1000F040F831
:10422000A389324623F48053A38128463B46B4F940
:104230000E10BDE8F04100F057B810B50C46B1F9CA
:104240000E1000F02DF8431CA38915BF606523F400
:10425000805343F48053A38118BFA38110BDB1F9EB
:104260000E1000F00DB803460244934200D170478F
:1042700003F8011BF9E700000048704758010020CF
:1042800038B50023054D044608462B60FDF7AEFC0B
:10429000431C02D12B6803B1236038BD2C070020DA
:1042A00038B50446084611460022054D2A601A46D4
:1042B000FDF7C0FC431C02D12B6803B1236038BD5D
:1042C0002C07002038B50446084611460022054D4B
:1042D0002A601A46FDF751FC431C02D12B6803B13A
:1042E000236038BD2C07002038B504460846114627
:1042F0000022054D2A601A46FDF75CFC431C02D1E2
:104300002B6803B1236038BD2C070020014B1868CF
:10431000704700BF6400002070B500260C4D0D4CA6
:10432000641BA410A64209D102F086F800260A4DAB
:104330000A4C641BA410A64205D170BD55F8043B7D
:1043400098470136EEE755F8043B98470136F2E707
:104350006C6800086C6800086C68000870680008E9
:10436000704770477047034610B5C9B20244934284
:10437000184601D1002003E0047801338C42F6D1C5
:1043800010BD0A44914200F1FF3300D1704710B5CF
:1043900011F8014B914203F8014FF9D110BD2DE9FD
:1043A000F74F03690C690746A3427FDB013C00F12C
:1043B000140501F1140805EB8403019358F8243027
:1043C00055F8242001339A42B2FBF3F64FEA840BEE
:1043D00008EB840931D34FF0000E4046AC46F2465C
:1043E00050F8042B93B206FB03E34FEA124E1A0C6B
:1043F0009BB206FB0E22AAEB0303DCF800A04FEAF7
:10440000124E1FFA8AFA5344DCF800A092B2C2EBB3
:104410001A4202EB23429BB243EA024381454FEA30
:10442000224A4CF8043BDBD255F80B302BB9019BE8
:10443000043B9D421A462DD33C61384601F092F967
:10444000002823DB29460020013658F8042BD1F838
:1044500000C093B2C31A120C1FFA8CF00344C2EBD3
:104460001C4202EB23429BB243EA0243C1454FEA9E
:10447000224041F8043BE8D255F8242005EB8403A0
:1044800022B9043B9D421A460AD33C61304603B030
:10449000BDE8F08F1268043B002ACDD1013CC8E78B
:1044A0001268043B002AF0D1013CEBE70020EEE764
:1044B0002DE9F04F16461F46C46999B00546CDE96F
:1044C0000467DDF8948074B9102000F01DFE0246E8
:1044D000E86120B9EF21AC4BAC4801F06DFCC0E9BC
:1044E00001440460C460EB69196851B15A68012342
:1044F00093404A608B60284600F0FAFE0022EB6988
:104500001A603B1EAFBF0023012223F00043059336
:10451000A8BFC8F80030DDF814909D4BB8BFC8F8AC
:10452000002033EA090319D142F20F73249A136071
:10453000C9F31303334300F08985269B53B9954B88
:1045400023E0954B03930833269A1360039819B020
:10455000BDE8F08F8F4B03930333F5E7DDE90434B7
:10456000CDE90C34DDE90C0100220023FCF71CFA34
:10457000804660B10123249A1360269B002B00F033
:104580006285864B269A1360013B0393DEE716ABE8
:10459000019317AB00932846DDE90C2301F08AF95B
:1045A000C9F30A548246002C7ED0DDE90C010D9B34
:1045B000A4F2FF34C3F3130343F07F5343F44013D7
:1045C000CDF84C8019460022754BFBF7CDFD68A352
:1045D000D3E90023FBF780FF67A3D3E90023FBF7B0
:1045E000C5FD064620460F46FBF70CFF64A3D3E942
:1045F0000023FBF771FF02460B4630463946FBF7B6
:10460000B5FD06460F46FCF717FA00228346002345
:1046100030463946FCF7D2F948B15846FBF7F2FE6E
:1046200032463B46FCF7C0F908B90BF1FF3BBBF142
:10463000160F57D8DDE90C015A4B03EBCB03D3E936
:104640000023FCF7BBF900284ED000230BF1FF3B01
:104650000F93169B1B1B5A1E46BFC3F10109002373
:104660004FF00009099248BF0993BBF1000F3DDBF1
:10467000099BCDF838B05B44099300230A93229B31
:10468000092B67D8052BC4BF043B2293229BC8BFCC
:104690000024A3F10203D8BF0124032B00F286807B
:1046A000DFE803F02C393756DDE916431C4404F2E9
:1046B0003243202BC1BFC3F1400309FA03F904F2CE
:1046C000124326FA03F3D6BFC3F1200349EA0300DD
:1046D00006FA03F0FBF786FE0122A1F1F873013C14
:1046E00013926FE70123B3E70F90B2E7CBF100031A
:1046F0000A930023A9EB0B090E93C0E700230B9349
:10470000239B002B55DC01231A4606930893239222
:104710000BE00123F3E700230B93239B5B440693F9
:104720000133012B0893B8BF012300210422E8695B
:1047300002F114069E4240D94160284600F098FDDF
:10474000039000283CD1024640F2AF11164BC3E65D
:104750000123E1E7012400230B9422934FF0FF3360
:104760000022069308931223D1E700BFAFF3008025
:1047700061436F63A787D23FB3C8608B288AC63F67
:10478000FB799F501344D33F336500084A65000806
:104790000000F07F2F65000826650008036500080B
:1047A0000000F83F38660008A265000801230B935B
:1047B000D4E7239B06930893B7E701315200B7E78C
:1047C000EB69039A1A60089B0E2B00F2A880002C5C
:1047D00000F0A580BBF1000F34DD9A4B0BF00F0207
:1047E00003EBC2031BF4807FD3E90034CDE910341E
:1047F0004FEA2B1416D0DDE90C01934B0327D3E9C4
:104800000823FBF793FFCDE9040104F00F048E4E5B
:1048100054B9DDE91023DDE90401FBF787FFCDE999
:10482000040129E00227F2E7E10708D5DDE91001DC
:10483000D6E90023FBF750FECDE9100101376410E3
:104840000836E5E700F0A580DDE90C01CBF10004B6
:104850007C4B04F00F0203EBC203D3E90023FBF708
:104860003BFE02270023CDE90401774E2411002CE2
:1048700040F08480002BD2D1DDE90434CDE910343E
:104880000F9B002B00F08780DDE9100100226F4BA9
:10489000FCF794F800287ED0089B002B7BD0069B69
:1048A000002B38DDDDE910010022694BFBF714FE17
:1048B000CDE90401069C0BF1FF3801373846FBF7C0
:1048C000A1FDDDE90423FBF707FE0022614BFBF7A6
:1048D0004DFCA1F15076CDE910011196002C5DD16F
:1048E000DDE9040100225C4BFBF73EFC02460B466F
:1048F000CDE904233346109AFCF77EF8002840F0F7
:104900009582DDE90401109A06F10043FCF756F8A0
:10491000002840F08982DDE90C34CDE90434179B8E
:10492000002BC0F25181BBF10E0F00F34D81454BBE
:1049300003EBCB03D3E90034CDE90634239B002BF2
:1049400080F2DA80089B002B00F3D68040F06B8267
:10495000DDE906010022404BFBF7BEFDDDE9042343
:10496000FCF740F8089C2646002840F0418231239D
:10497000039F0BF1010B07F8013B3DE2E20705D570
:10498000D6E90023FBF7A8FD0123013764100836A0
:104990006DE7022770E7D846089C8FE70399294BFB
:1049A000214412910B9903EBC403DDE9106753E92D
:1049B0000223002954D000202849FBF7B7FE3B46CC
:1049C0003246FBF7D1FBCDE91001039FDDE904017D
:1049D000FCF732F80446FBF715FD02460B46DDE90D
:1049E0000401FBF7C1FB02460B463034CDE904233A
:1049F000DDE9102307F8014BFBF7E0FF002873D136
:104A0000DDE9042300201149FBF7AEFBDDE91023AB
:104A1000FBF7D4FF002840F0B680129B9F423FF482
:104A20007AAFDDE910010022094BFBF755FD0022AA
:104A3000CDE91001DDE90401054BFBF74DFDCDE9A2
:104A40000401C3E738660008106600080000F03F64
:104A50000000244000001C40000014400000E03F23
:104A600030463946FBF738FD129BCDE91001039C17
:104A70001493DDE90401FBF7DFFF1590FBF7C2FC9F
:104A800002460B46DDE90401FBF76EFB159B06466B
:104A9000303304F8013B129B0F469C424FF000025A
:104AA00024D1DDE91001AF4BFBF760FB02460B465A
:104AB00030463946FBF7A0FF002863D1DDE910231B
:104AC0000020A849FBF750FB02460B46304639460A
:104AD000FBF774FF00283FF41EAF149F7B1E149356
:104AE00017F8013C302BF8D0C3463BE09E4BFBF758
:104AF000F3FCCDE90401BCE7039FDDE90489DDE9AE
:104B0000062340464946FBF711FEFBF795FF044696
:104B1000FBF778FCDDE90623FBF7DEFC02460B46DB
:104B200040464946FBF720FB04F1300607F8016BCD
:104B3000039EDDF820C0BE1BB44502460B4636D1AD
:104B4000FBF714FBDDE9062380468946FBF754FF9B
:104B500058BBDDE9062340464946FBF725FF08B16F
:104B6000E30722D45146284600F0C2FB0023249AD2
:104B70003B700BF101031360269B002B3FF4E6AC66
:104B80001F60E3E427463B461F4613F8012D392AF0
:104B900007D1039A9A42F7D13022039908F101080C
:104BA0000A701A7801321A709EE7D846EBE70022A5
:104BB0006D4BFBF791FC0022002380468946FBF7F2
:104BC000F3FE00289BD0CDE70B9A002A00F0C480AA
:104BD000229A012A00F3A880139A002A00F0A080EC
:104BE00003F233434F460A9C099A01211A4428468E
:104BF0009944099200F032FC06465FB1099B002BF4
:104C000008DDBB42A8BF3B46099AA9EB0309FF1A7E
:104C1000D31A09930A9BF3B10B9B002B00F0A080E1
:104C2000002C10DD31462246284600F0D5FC5246C5
:104C300001460646284600F027FC80465146284695
:104C400000F056FBC2460A9B1A1B04D05146284668
:104C500000F0C2FC82460121284600F0FFFB0E9BBB
:104C60000446002B40F382801A460146284600F095
:104C7000B3FC229B0446012B7BDD4FF00008236927
:104C800004EB8303186900F09BFBC0F12000099B33
:104C9000184410F01F0000F09280C0F12003042B94
:104CA00040F38580099BC0F11C0003448144074404
:104CB0000993B9F1000F05DD51464A46284600F038
:104CC000E5FC8246099B002B05DD21461A46284655
:104CD00000F0DCFC04460F9B002B72D021465046AE
:104CE00000F040FD00286CDA002351460A222846D5
:104CF00000F020FB0B9B82460BF1FF3B002B00F0EA
:104D0000AC81002331460A22284600F013FB069BA3
:104D10000646002B00F39380229B022B59DC8EE089
:104D2000169BC3F136035DE7089B5C1E0A9BA342FA
:104D3000BFBF0A9B0E9AE31AD218A8BF1C1B089B80
:104D4000BEBF0A940E920024002BB5BFA9EB030747
:104D50004F460023089B47E74F460A9C0B9E4CE7B3
:104D60000A9A73E70000E03F00002440229B012BD9
:104D700018DC049BB3B9059BC3F3130393B9059BDC
:104D800023F000431B0D1B057BB14FF00108099B6D
:104D900009F10109013309930E9B002B7FF46FAFDA
:104DA000012074E74FF00008F6E79846F4E780D05A
:104DB000099A1C331A4499441F44099279E703461F
:104DC000F6E7089B002B34DC229B022B31DD089B8D
:104DD0000693069B63B921460522284600F0AAFAED
:104DE00001460446504600F0BDFC00283FF7BFAD29
:104DF000239B039F6FEA030B4FF0000821462846D0
:104E000000F076FA002E3FF4ADAEB8F1000F05D0F9
:104E1000B04503D04146284600F06AFA314628469C
:104E200000F066FA9EE600242646E1E7C3462646E1
:104E30009DE50B9B002B00F0C880089B0693002F7C
:104E400005DD31463A46284600F020FC0646B8F11A
:104E5000000F5BD02846716800F00AFA074628B9AF
:104E6000024640F2EF21814BFFF736BB326906F173
:104E70000C01023292000C30FFF783FA012239460E
:104E8000284600F003FCB0460646039B039A013314
:104E90000893069B13440B93049B03F001030A93AE
:104EA000089B2146013B50460493FFF778FA4146A0
:104EB000069000F13009504600F054FC324609904B
:104EC0002146284600F06AFCC268074602BB01463C
:104ED000504600F047FC0246394628460C9200F046
:104EE00007FA229B0C9A089F43EA02010A9B194386
:104EF00010D1B9F1390F29D0099B002B02DD069B97
:104F000003F13109049B83F8009077E73046BAE754
:104F10000122E1E7099B002B04DB22990B430A994C
:104F20000B4320D1002AEDDD51460122284600F036
:104F3000ADFB2146824600F015FC002803DCE1D1E0
:104F400019F0010FDED0B9F1390FD8D13923049A05
:104F500013703B461F4617F8012C013B392A6BD0D2
:104F600001321A704AE7002A07DDB9F1390FEDD096
:104F7000049A09F10103137040E7089B0B9A03F8A8
:104F8000019C934242D0514600230A22284600F059
:104F9000D1F9B04582464FF000034FF00A02414676
:104FA000284607D100F0C6F980460646089B013323
:104FB000089375E700F0BEF93146804600230A22C7
:104FC000284600F0B7F90646F0E7089B0693039FD2
:104FD00021465046FFF7E3F9039B00F1300907F83B
:104FE000019BFA1A069B934207DD514600230A22D1
:104FF000284600F09FF98246EAE7069B4FF000083A
:10500000002BCCBF1F460127039B1F4451460122A2
:10501000284600F03BFB2146824600F0A3FB002817
:1050200097DC02D119F0010F93D13B461F4613F8CC
:10503000012D302AFAD0E1E6039A9A428AD131232F
:105040000BF1010B97E70A4BFFF79FBA269B002B4A
:105050007FF477AA074BFFF798BA069B002BB6DCC4
:10506000229B022B3FF7B5AEB1E700BFA265000857
:10507000026500082665000838B50546002940D0BD
:1050800051F8043C0C1F002BB8BFE41800F0E4F802
:105090001C4A136833B9636014602846BDE8384081
:1050A00000F0E0B8A34208D9206821188B4201BF64
:1050B00019685B6809182160EDE71A465B680BB157
:1050C000A342FAD911685018A0420BD120680144BC
:1050D000501883421160E0D118685B680844106082
:1050E0005360DAE702D90C232B60D6E72068211839
:1050F0008B4201BF19685B680918216063605460C6
:10510000CBE738BD34070020024B0146186800F099
:1051100023B800BF6400002070B50E4E0C46316805
:10512000054611B900F038FE30602146284600F0EF
:1051300033FE431C0AD0C41C24F00304A04207D051
:10514000211A284600F028FE013001D14FF0FF342B
:10515000204670BD380700202DE9F843CD1C25F00E
:10516000030508350C2D38BF0C25002D074601DB43
:10517000A94205D90C2300263B603046BDE8F883E0
:10518000DFF8D08000F068F8D8F800301C465CBB2F
:1051900029463846FFF7C0FF431C044655D1D8F8CE
:1051A00000402646002E45D1002C48D023683146C9
:1051B000384604EB030900F0EFFD81453FD121683B
:1051C00038466D1A2946FFF7A7FF013037D023680C
:1051D0002B442360D8F80030002B38D05A68A24204
:1051E0002BD100225A600FE02268521B1FD40B2AD9
:1051F00017D96119A342256018BF5960636808BFB9
:10520000C8F8001062514B60384604F10B0600F0FC
:1052100029F826F00706231DF21AAED09B1BA350D7
:10522000ABE7A3426268DDD1C8F80020ECE7234673
:105230006468ACE734467668B4E71346CCE70C23E1
:1052400038463B6000F00EF897E72560DCE75B60CE
:10525000FFDE00BF340700200148FFF782B800BF1F
:10526000300700200148FFF77DB800BF300700205D
:1052700070B5C66904460D4676B91020FFF744FFA5
:105280000246E06120B96B21174B184800F094FDED
:10529000C0E901660660C660E669F36883B1E36948
:1052A000DB6853F82500B8B9012101FA05F6721D33
:1052B0002046920000F09EFD60B1C0E901560EE06C
:1052C00021220421204600F095FDE369F060DB68AF
:1052D000002BE4D1002070BD026843F82520002394
:1052E000C0E90333F7E700BF33650008B365000882
:1052F00070B5C66905460C4676B91020FFF704FF65
:105300000246E86120B98F21084B094800F054FD9E
:10531000C0E901660660C6603CB1EB696268DB68A3
:1053200053F82210216043F8224070BD3365000815
:10533000B36500082DE9F04107460C461E460020E3
:105340000D6901F1140CDCF80030013099B202FB58
:1053500001611E0C0B0C02FB063389B201EB034109
:1053600085424FEA13464CF8041BECDC0EB3A368ED
:10537000AB4219DC616838460131FFF779FF80469E
:1053800028B90246BA210C4B0C4800F015FD2269E1
:1053900004F10C01023292000C30FEF7F2FF2146BC
:1053A0003846FFF7A5FF444604EB850301355E61EF
:1053B00025612046BDE8F081A2650008B3650008BC
:1053C000020C12040346CAB90304102013F07F4FE5
:1053D00004BF1B02083013F0704F04BF1B010430E0
:1053E00013F0404F04BF9B000230002B05DB13F08D
:1053F000804F00F1010008BF202070470020E5E742
:105400000368024613F007000BD0D90721D4980790
:1054100049BF5B089B08012013605CBF022013603A
:10542000704799B209B910201B0CD9B209B90830DC
:105430001B0A190704BF1B090430990704BF9B0806
:105440000230D90703D45B0800F1010003D01360D8
:1054500070470020704720207047000010B50C46B0
:105460000121FFF705FF024628B940F24511044B20
:10547000044800F0A1FC01234461036110BD00BF9A
:10548000A2650008B36500082DE9F04F91460A694E
:10549000D9F810300C469A42BEBF0B464C4699468E
:1054A0002769D9F810A0A368616807EB0A06B34220
:1054B00085B0B8BF0131FFF7DBFE30B902464FF4CB
:1054C000B171434B434800F077FC00F114052B46C3
:1054D000002205EB8608434521D304F1140303EBB6
:1054E000870709F1140303EB8A0202923A1B153A6B
:1054F00022F00302043204F115018F4238BF042266
:105500000192029A03939A420CD8002E03DD58F8B8
:10551000043D002B5AD0066105B0BDE8F08F43F87A
:10552000042BD8E7B3F800A0BAF1000F23D0A946A6
:105530004FF0000C04F1140E5EF8042BD9F80010A3
:105540001FFA82FB89B20AFB0B116144D9F800C033
:10555000120C4FEA1C4C0AFB02C202EB114289B248
:1055600041EA024177454FEA124C49F8041BE3D85F
:10557000019A45F802C0039A0433B2F80290B9F1D7
:10558000000F21D0AE464FF0000A296804F1140C38
:10559000BCF800B0BEF8022089B209FB0B225244CD
:1055A00041EA02414EF8041B5CF8041B4FEA114A21
:1055B000BEF80010674509FB0A1101EB12414FEAE2
:1055C000114AE5D8019AA95004359AE7013E9CE7B3
:1055D000A2650008B36500082DE9F843154612F0EE
:1055E000030206460F4607D0254C013A002354F823
:1055F0002220FFF79FFE0746AD103DD0F4697CB92D
:105600001020FFF781FD0246F06128B940F2B31186
:105610001C4B1D4800F0D0FBC0E901440460C4608D
:10562000D6F81C80D8F808404CB940F271213046B9
:10563000FFF714FF00230446C8F8080003604FF08A
:105640000009EB070AD5394622463046FFF71CFF12
:10565000804639463046FFF74BFE47466D100BD06B
:10566000206838B9224621463046FFF70DFF2060FA
:10567000C0F800900446E4E73846BDE8F88300BF70
:105680000067000833650008B36500082DE9F0479E
:105690000C46074691462369496803EB6218A368E4
:1056A0004FEA621A08F10106B3420BDB3846FFF7F6
:1056B000DFFD054648B902464FF4EF71274B2848F5
:1056C00000F07AFB01315B00EEE7002300F11401EA
:1056D00000F110021846534533DB20692AEAEA7AC2
:1056E00004F1140319F01F0901EB8A0103EB800C8C
:1056F0002BD08A460022C9F1200E186800FA09F062
:1057000010434AF8040B53F8042B9C4522FA0EF27E
:10571000F3D8ACEB0403153B23F00303043304F18B
:105720001500844538BF0423CA500AB108F10206A7
:10573000013E384621462E61FFF7DAFD2846BDE8D6
:10574000F08742F8040F0133C5E7043953F8042BFE
:105750009C4541F8042FF9D8EAE700BFA26500088C
:10576000B365000803460A69006930B5801A0DD197
:105770001433143103EB820401EB820154F8045D0D
:1057800051F8042D954202D004D3012030BDA3422C
:10579000F4D3FBE74FF0FF30F8E700002DE9F84FB6
:1057A0000D460746114628461446FFF7DBFF061E46
:1057B00011D131463846FFF75BFD024628B940F269
:1057C00037213A4B3A4800F0F7FA0123C0E9043692
:1057D0001046BDE8F88FA4BF23462C4638466168C2
:1057E000A6BF1D4600260126FFF742FD024618B956
:1057F00040F245212D4BE5E702F11408C2464FF077
:10580000000C2769C6602E6904F1140005F1140923
:1058100000EB870E09EB8606103454F804BF59F8E4
:10582000043B1FFA8BF161441FFA83FC1B0CA1EBB4
:105830000C01C3EB1B4303EB214389B241EA034153
:105840004E454FEA234C4AF8041BE6D8731B153B20
:1058500023F0030315350433AE4238BF0423184444
:1058600043441E46054675450ED30EF10301091A41
:1058700021F003010338864538BF00210B4453F85B
:10588000041D89B11761A3E755F8048B1FFA88F14D
:1058900061440C1404EB184489B241EA04414FEA14
:1058A000244C46F8041BDEE7013FE8E7A265000848
:1058B000B3650008F7B5012117461C46089EFFF79F
:1058C000D7FC054630B9024640F20F31224B23483F
:1058D00000F072FAC4F31303C4F30A5424BB002F7C
:1058E000019326D068460097FFF78AFDDDE9001294
:1058F000E8B1C0F1200302FA03F30B43C2406B612D
:105900000192019B002B14BF02210121AB6129618F
:10591000BCB1A4F2334404443460C0F13500099BA7
:105920001860284603B0F0BD43F48013D7E76961DF
:10593000E7E701A8FFF764FD019B01216B612030BF
:10594000E5E7A0F2324005EB810330601869FFF70C
:1059500037FDC0EB4110E2E7A2650008B36500081F
:105960002DE9F0471F468E688246BE420C4690469F
:105970000B682CD88A8912F4906F26D06569096962
:1059800005EB4505A3EB010905EBD5757B1C4B44E5
:105990006D109D4238BF1D46530527D52946FFF798
:1059A000DBFB064660B34A462169FEF7EAFCA389A1
:1059B00023F4906343F08003A38126614E44266064
:1059C0003E466561A5EB0905A560BE4200D93E468D
:1059D00032464146206800F0C5F90020A3689B1BB1
:1059E000A360236833442360BDE8F0872A4600F0B3
:1059F00027FA06460028E0D150462169FFF73CFB14
:105A00000C23CAF80030A3894FF0FF3043F0400365
:105A1000A381E9E72DE9F04F98468B8907461B06DD
:105A20000D4614469DB00ED50B6963B94021FFF7B2
:105A300093FB2860286120B90C233B604FF0FF30B6
:105A4000D0E040236B610023099320238DF8293097
:105A500030234FF00109CDF80C80DFF8A0818DF8DC
:105A60002A3023469A4613F8012B0AB1252AF9D188
:105A7000BAEB040B0BD05B46224629463846FFF7AB
:105A80006FFF013000F0A980099A5A4409929AF8F0
:105A90000030002B00F0A18000234FF0FF32CDE951
:105AA00005230AF1010A049307938DF853301A93E2
:105AB0005446052214F8011B5048FEF754FC049A82
:105AC000D8B9D00644BF20238DF85330110744BF06
:105AD0002B238DF853309AF800302A2B15D05446DA
